{
  "contractName": "MarsColony",
  "abi": [
    {
      "inputs": [],
      "stateMutability": "nonpayable",
      "type": "constructor"
    },
    {
      "anonymous": false,
      "inputs": [
        {
          "indexed": true,
          "internalType": "address",
          "name": "owner",
          "type": "address"
        },
        {
          "indexed": true,
          "internalType": "address",
          "name": "approved",
          "type": "address"
        },
        {
          "indexed": true,
          "internalType": "uint256",
          "name": "tokenId",
          "type": "uint256"
        }
      ],
      "name": "Approval",
      "type": "event"
    },
    {
      "anonymous": false,
      "inputs": [
        {
          "indexed": true,
          "internalType": "address",
          "name": "owner",
          "type": "address"
        },
        {
          "indexed": true,
          "internalType": "address",
          "name": "operator",
          "type": "address"
        },
        {
          "indexed": false,
          "internalType": "bool",
          "name": "approved",
          "type": "bool"
        }
      ],
      "name": "ApprovalForAll",
      "type": "event"
    },
    {
      "anonymous": false,
      "inputs": [
        {
          "indexed": true,
          "internalType": "address",
          "name": "from",
          "type": "address"
        },
        {
          "indexed": true,
          "internalType": "address",
          "name": "to",
          "type": "address"
        },
        {
          "indexed": true,
          "internalType": "uint256",
          "name": "tokenId",
          "type": "uint256"
        }
      ],
      "name": "Transfer",
      "type": "event"
    },
    {
      "inputs": [
        {
          "internalType": "address",
          "name": "to",
          "type": "address"
        },
        {
          "internalType": "uint256",
          "name": "tokenId",
          "type": "uint256"
        }
      ],
      "name": "approve",
      "outputs": [],
      "stateMutability": "nonpayable",
      "type": "function"
    },
    {
      "inputs": [
        {
          "internalType": "address",
          "name": "owner",
          "type": "address"
        }
      ],
      "name": "balanceOf",
      "outputs": [
        {
          "internalType": "uint256",
          "name": "",
          "type": "uint256"
        }
      ],
      "stateMutability": "view",
      "type": "function",
      "constant": true
    },
    {
      "inputs": [
        {
          "internalType": "uint256",
          "name": "tokenId",
          "type": "uint256"
        }
      ],
      "name": "getApproved",
      "outputs": [
        {
          "internalType": "address",
          "name": "",
          "type": "address"
        }
      ],
      "stateMutability": "view",
      "type": "function",
      "constant": true
    },
    {
      "inputs": [
        {
          "internalType": "address",
          "name": "owner",
          "type": "address"
        },
        {
          "internalType": "address",
          "name": "operator",
          "type": "address"
        }
      ],
      "name": "isApprovedForAll",
      "outputs": [
        {
          "internalType": "bool",
          "name": "",
          "type": "bool"
        }
      ],
      "stateMutability": "view",
      "type": "function",
      "constant": true
    },
    {
      "inputs": [],
      "name": "name",
      "outputs": [
        {
          "internalType": "string",
          "name": "",
          "type": "string"
        }
      ],
      "stateMutability": "view",
      "type": "function",
      "constant": true
    },
    {
      "inputs": [
        {
          "internalType": "uint256",
          "name": "tokenId",
          "type": "uint256"
        }
      ],
      "name": "ownerOf",
      "outputs": [
        {
          "internalType": "address",
          "name": "",
          "type": "address"
        }
      ],
      "stateMutability": "view",
      "type": "function",
      "constant": true
    },
    {
      "inputs": [
        {
          "internalType": "address",
          "name": "from",
          "type": "address"
        },
        {
          "internalType": "address",
          "name": "to",
          "type": "address"
        },
        {
          "internalType": "uint256",
          "name": "tokenId",
          "type": "uint256"
        }
      ],
      "name": "safeTransferFrom",
      "outputs": [],
      "stateMutability": "nonpayable",
      "type": "function"
    },
    {
      "inputs": [
        {
          "internalType": "address",
          "name": "from",
          "type": "address"
        },
        {
          "internalType": "address",
          "name": "to",
          "type": "address"
        },
        {
          "internalType": "uint256",
          "name": "tokenId",
          "type": "uint256"
        },
        {
          "internalType": "bytes",
          "name": "_data",
          "type": "bytes"
        }
      ],
      "name": "safeTransferFrom",
      "outputs": [],
      "stateMutability": "nonpayable",
      "type": "function"
    },
    {
      "inputs": [
        {
          "internalType": "address",
          "name": "operator",
          "type": "address"
        },
        {
          "internalType": "bool",
          "name": "approved",
          "type": "bool"
        }
      ],
      "name": "setApprovalForAll",
      "outputs": [],
      "stateMutability": "nonpayable",
      "type": "function"
    },
    {
      "inputs": [
        {
          "internalType": "bytes4",
          "name": "interfaceId",
          "type": "bytes4"
        }
      ],
      "name": "supportsInterface",
      "outputs": [
        {
          "internalType": "bool",
          "name": "",
          "type": "bool"
        }
      ],
      "stateMutability": "view",
      "type": "function",
      "constant": true
    },
    {
      "inputs": [],
      "name": "symbol",
      "outputs": [
        {
          "internalType": "string",
          "name": "",
          "type": "string"
        }
      ],
      "stateMutability": "view",
      "type": "function",
      "constant": true
    },
    {
      "inputs": [
        {
          "internalType": "uint256",
          "name": "tokenId",
          "type": "uint256"
        }
      ],
      "name": "tokenURI",
      "outputs": [
        {
          "internalType": "string",
          "name": "",
          "type": "string"
        }
      ],
      "stateMutability": "view",
      "type": "function",
      "constant": true
    },
    {
      "inputs": [
        {
          "internalType": "address",
          "name": "from",
          "type": "address"
        },
        {
          "internalType": "address",
          "name": "to",
          "type": "address"
        },
        {
          "internalType": "uint256",
          "name": "tokenId",
          "type": "uint256"
        }
      ],
      "name": "transferFrom",
      "outputs": [],
      "stateMutability": "nonpayable",
      "type": "function"
    },
    {
      "inputs": [
        {
          "internalType": "address",
          "name": "owner",
          "type": "address"
        }
      ],
      "name": "tokensOf",
      "outputs": [
        {
          "internalType": "uint256[]",
          "name": "",
          "type": "uint256[]"
        }
      ],
      "stateMutability": "view",
      "type": "function",
      "constant": true
    },
    {
      "inputs": [],
      "name": "allMintedTokens",
      "outputs": [
        {
          "internalType": "uint256[]",
          "name": "",
          "type": "uint256[]"
        }
      ],
      "stateMutability": "view",
      "type": "function",
      "constant": true
    },
    {
      "inputs": [
        {
          "internalType": "uint256",
          "name": "_tokenId",
          "type": "uint256"
        }
      ],
      "name": "buy",
      "outputs": [],
      "stateMutability": "payable",
      "type": "function",
      "payable": true
    },
    {
      "inputs": [],
      "name": "withdraw",
      "outputs": [],
      "stateMutability": "nonpayable",
      "type": "function"
    }
  ],
  "bytecode": "0x60806040523480156200001157600080fd5b506040518060400160405280600a81526020017f4d617273436f6c6f6e79000000000000000000000000000000000000000000008152506040518060400160405280600281526020017f4d43000000000000000000000000000000000000000000000000000000000000815250816000908051906020019062000096929190620000b8565b508060019080519060200190620000af929190620000b8565b505050620001cd565b828054620000c69062000168565b90600052602060002090601f016020900481019282620000ea576000855562000136565b82601f106200010557805160ff191683800117855562000136565b8280016001018555821562000136579182015b828111156200013557825182559160200191906001019062000118565b5b50905062000145919062000149565b5090565b5b80821115620001645760008160009055506001016200014a565b5090565b600060028204905060018216806200018157607f821691505b602082108114156200019857620001976200019e565b5b50919050565b7f4e487b7100000000000000000000000000000000000000000000000000000000600052602260045260246000fd5b612fab80620001dd6000396000f3fe6080604052600436106100fe5760003560e01c80636352211e11610095578063a22cb46511610064578063a22cb46514610347578063b88d4fde14610370578063c87b56dd14610399578063d96a094a146103d6578063e985e9c5146103f2576100fe565b80636352211e1461027757806370a08231146102b457806395d89b41146102f1578063977048f21461031c576100fe565b806323b872dd116100d157806323b872dd146101d15780633ccfd60b146101fa57806342842e0e146102115780635a3f26721461023a576100fe565b806301ffc9a71461010357806306fdde0314610140578063081812fc1461016b578063095ea7b3146101a8575b600080fd5b34801561010f57600080fd5b5061012a60048036038101906101259190611ece565b61042f565b60405161013791906123e2565b60405180910390f35b34801561014c57600080fd5b50610155610511565b60405161016291906123fd565b60405180910390f35b34801561017757600080fd5b50610192600480360381019061018d9190611f28565b6105a3565b60405161019f9190612359565b60405180910390f35b3480156101b457600080fd5b506101cf60048036038101906101ca9190611e8e565b610628565b005b3480156101dd57600080fd5b506101f860048036038101906101f39190611d78565b610740565b005b34801561020657600080fd5b5061020f6107a0565b005b34801561021d57600080fd5b5061023860048036038101906102339190611d78565b610863565b005b34801561024657600080fd5b50610261600480360381019061025c9190611d0b565b610883565b60405161026e91906123c0565b60405180910390f35b34801561028357600080fd5b5061029e60048036038101906102999190611f28565b61098a565b6040516102ab9190612359565b60405180910390f35b3480156102c057600080fd5b506102db60048036038101906102d69190611d0b565b610a3c565b6040516102e8919061263f565b60405180910390f35b3480156102fd57600080fd5b50610306610af4565b60405161031391906123fd565b60405180910390f35b34801561032857600080fd5b50610331610b86565b60405161033e91906123c0565b60405180910390f35b34801561035357600080fd5b5061036e60048036038101906103699190611e4e565b610bde565b005b34801561037c57600080fd5b5061039760048036038101906103929190611dcb565b610d5f565b005b3480156103a557600080fd5b506103c060048036038101906103bb9190611f28565b610dc1565b6040516103cd91906123fd565b60405180910390f35b6103f060048036038101906103eb9190611f28565b610e68565b005b3480156103fe57600080fd5b5061041960048036038101906104149190611d38565b610ebe565b60405161042691906123e2565b60405180910390f35b60007f80ac58cd000000000000000000000000000000000000000000000000000000007bffffffffffffffffffffffffffffffffffffffffffffffffffffffff1916827bffffffffffffffffffffffffffffffffffffffffffffffffffffffff191614806104fa57507f5b5e139f000000000000000000000000000000000000000000000000000000007bffffffffffffffffffffffffffffffffffffffffffffffffffffffff1916827bffffffffffffffffffffffffffffffffffffffffffffffffffffffff1916145b8061050a575061050982610f52565b5b9050919050565b606060008054610520906128a8565b80601f016020809104026020016040519081016040528092919081815260200182805461054c906128a8565b80156105995780601f1061056e57610100808354040283529160200191610599565b820191906000526020600020905b81548152906001019060200180831161057c57829003601f168201915b5050505050905090565b60006105ae82610fbc565b6105ed576040517f08c379a00000000000000000000000000000000000000000000000000000000081526004016105e49061255f565b60405180910390fd5b6004600083815260200190815260200160002060009054906101000a900473ffffffffffffffffffffffffffffffffffffffff169050919050565b60006106338261098a565b90508073ffffffffffffffffffffffffffffffffffffffff168373ffffffffffffffffffffffffffffffffffffffff1614156106a4576040517f08c379a000000000000000000000000000000000000000000000000000000000815260040161069b906125bf565b60405180910390fd5b8073ffffffffffffffffffffffffffffffffffffffff166106c3611028565b73ffffffffffffffffffffffffffffffffffffffff1614806106f257506106f1816106ec611028565b610ebe565b5b610731576040517f08c379a0000000000000000000000000000000000000000000000000000000008152600401610728906124df565b60405180910390fd5b61073b8383611030565b505050565b61075161074b611028565b826110e9565b610790576040517f08c379a0000000000000000000000000000000000000000000000000000000008152600401610787906125ff565b60405180910390fd5b61079b8383836111c7565b505050565b60007397438e7a978a91dc281b834b62bb5737f629aca973ffffffffffffffffffffffffffffffffffffffff16476040516107da90612344565b60006040518083038185875af1925050503d8060008114610817576040519150601f19603f3d011682016040523d82523d6000602084013e61081c565b606091505b5050905080610860576040517f08c379a0000000000000000000000000000000000000000000000000000000008152600401610857906125df565b60405180910390fd5b50565b61087e83838360405180602001604052806000815250610d5f565b505050565b6060600073ffffffffffffffffffffffffffffffffffffffff168273ffffffffffffffffffffffffffffffffffffffff1614156108f5576040517f08c379a00000000000000000000000000000000000000000000000000000000081526004016108ec9061261f565b60405180910390fd5b600660008373ffffffffffffffffffffffffffffffffffffffff1673ffffffffffffffffffffffffffffffffffffffff16815260200190815260200160002080548060200260200160405190810160405280929190818152602001828054801561097e57602002820191906000526020600020905b81548152602001906001019080831161096a575b50505050509050919050565b6000806002600084815260200190815260200160002060009054906101000a900473ffffffffffffffffffffffffffffffffffffffff169050600073ffffffffffffffffffffffffffffffffffffffff168173ffffffffffffffffffffffffffffffffffffffff161415610a33576040517f08c379a0000000000000000000000000000000000000000000000000000000008152600401610a2a9061251f565b60405180910390fd5b80915050919050565b60008073ffffffffffffffffffffffffffffffffffffffff168273ffffffffffffffffffffffffffffffffffffffff161415610aad576040517f08c379a0000000000000000000000000000000000000000000000000000000008152600401610aa4906124ff565b60405180910390fd5b600360008373ffffffffffffffffffffffffffffffffffffffff1673ffffffffffffffffffffffffffffffffffffffff168152602001908152602001600020549050919050565b606060018054610b03906128a8565b80601f0160208091040260200160405190810160405280929190818152602001828054610b2f906128a8565b8015610b7c5780601f10610b5157610100808354040283529160200191610b7c565b820191906000526020600020905b815481529060010190602001808311610b5f57829003601f168201915b5050505050905090565b60606008805480602002602001604051908101604052809291908181526020018280548015610bd457602002820191906000526020600020905b815481526020019060010190808311610bc0575b5050505050905090565b610be6611028565b73ffffffffffffffffffffffffffffffffffffffff168273ffffffffffffffffffffffffffffffffffffffff161415610c54576040517f08c379a0000000000000000000000000000000000000000000000000000000008152600401610c4b9061249f565b60405180910390fd5b8060056000610c61611028565b73ffffffffffffffffffffffffffffffffffffffff1673ffffffffffffffffffffffffffffffffffffffff16815260200190815260200160002060008473ffffffffffffffffffffffffffffffffffffffff1673ffffffffffffffffffffffffffffffffffffffff16815260200190815260200160002060006101000a81548160ff0219169083151502179055508173ffffffffffffffffffffffffffffffffffffffff16610d0e611028565b73ffffffffffffffffffffffffffffffffffffffff167f17307eab39ab6107e8899845ad3d59bd9653f200f220920489ca2b5937696c3183604051610d5391906123e2565b60405180910390a35050565b610d70610d6a611028565b836110e9565b610daf576040517f08c379a0000000000000000000000000000000000000000000000000000000008152600401610da6906125ff565b60405180910390fd5b610dbb84848484611315565b50505050565b6060610dcc82610fbc565b610e0b576040517f08c379a0000000000000000000000000000000000000000000000000000000008152600401610e029061259f565b60405180910390fd5b6000610e15611371565b90506000815111610e355760405180602001604052806000815250610e60565b80610e3f84611388565b604051602001610e50929190612320565b6040516020818303038152906040525b915050919050565b66038d7ea4c680003414610eb1576040517f08c379a0000000000000000000000000000000000000000000000000000000008152600401610ea89061241f565b60405180910390fd5b610ebb33826114e9565b50565b6000600560008473ffffffffffffffffffffffffffffffffffffffff1673ffffffffffffffffffffffffffffffffffffffff16815260200190815260200160002060008373ffffffffffffffffffffffffffffffffffffffff1673ffffffffffffffffffffffffffffffffffffffff16815260200190815260200160002060009054906101000a900460ff16905092915050565b60007f01ffc9a7000000000000000000000000000000000000000000000000000000007bffffffffffffffffffffffffffffffffffffffffffffffffffffffff1916827bffffffffffffffffffffffffffffffffffffffffffffffffffffffff1916149050919050565b60008073ffffffffffffffffffffffffffffffffffffffff166002600084815260200190815260200160002060009054906101000a900473ffffffffffffffffffffffffffffffffffffffff1673ffffffffffffffffffffffffffffffffffffffff1614159050919050565b600033905090565b816004600083815260200190815260200160002060006101000a81548173ffffffffffffffffffffffffffffffffffffffff021916908373ffffffffffffffffffffffffffffffffffffffff160217905550808273ffffffffffffffffffffffffffffffffffffffff166110a38361098a565b73ffffffffffffffffffffffffffffffffffffffff167f8c5be1e5ebec7d5bd14f71427d1e84f3dd0314c0f7b2291e5b200ac8c7c3b92560405160405180910390a45050565b60006110f482610fbc565b611133576040517f08c379a000000000000000000000000000000000000000000000000000000000815260040161112a906124bf565b60405180910390fd5b600061113e8361098a565b90508073ffffffffffffffffffffffffffffffffffffffff168473ffffffffffffffffffffffffffffffffffffffff1614806111ad57508373ffffffffffffffffffffffffffffffffffffffff16611195846105a3565b73ffffffffffffffffffffffffffffffffffffffff16145b806111be57506111bd8185610ebe565b5b91505092915050565b6111d2838383611507565b600660008473ffffffffffffffffffffffffffffffffffffffff1673ffffffffffffffffffffffffffffffffffffffff1681526020019081526020016000206001600760008481526020019081526020016000205461123191906127be565b8154811061124257611241612a12565b5b9060005260206000200160009055600660008373ffffffffffffffffffffffffffffffffffffffff1673ffffffffffffffffffffffffffffffffffffffff168152602001908152602001600020819080600181540180825580915050600190039060005260206000200160009091909190915055600660008373ffffffffffffffffffffffffffffffffffffffff1673ffffffffffffffffffffffffffffffffffffffff168152602001908152602001600020805490506007600083815260200190815260200160002081905550505050565b6113208484846111c7565b61132c84848484611763565b61136b576040517f08c379a00000000000000000000000000000000000000000000000000000000081526004016113629061243f565b60405180910390fd5b50505050565b606060405180602001604052806000815250905090565b606060008214156113d0576040518060400160405280600181526020017f300000000000000000000000000000000000000000000000000000000000000081525090506114e4565b600082905060005b600082146114025780806113eb9061290b565b915050600a826113fb919061278d565b91506113d8565b60008167ffffffffffffffff81111561141e5761141d612a41565b5b6040519080825280601f01601f1916602001820160405280156114505781602001600182028036833780820191505090505b5090505b600085146114dd5760018261146991906127be565b9150600a856114789190612954565b60306114849190612737565b60f81b81838151811061149a57611499612a12565b5b60200101907effffffffffffffffffffffffffffffffffffffffffffffffffffffffffffff1916908160001a905350600a856114d6919061278d565b9450611454565b8093505050505b919050565b6115038282604051806020016040528060008152506118fa565b5050565b8273ffffffffffffffffffffffffffffffffffffffff166115278261098a565b73ffffffffffffffffffffffffffffffffffffffff161461157d576040517f08c379a00000000000000000000000000000000000000000000000000000000081526004016115749061257f565b60405180910390fd5b600073ffffffffffffffffffffffffffffffffffffffff168273ffffffffffffffffffffffffffffffffffffffff1614156115ed576040517f08c379a00000000000000000000000000000000000000000000000000000000081526004016115e49061247f565b60405180910390fd5b6115f8838383611955565b611603600082611030565b6001600360008573ffffffffffffffffffffffffffffffffffffffff1673ffffffffffffffffffffffffffffffffffffffff168152602001908152602001600020600082825461165391906127be565b925050819055506001600360008473ffffffffffffffffffffffffffffffffffffffff1673ffffffffffffffffffffffffffffffffffffffff16815260200190815260200160002060008282546116aa9190612737565b92505081905550816002600083815260200190815260200160002060006101000a81548173ffffffffffffffffffffffffffffffffffffffff021916908373ffffffffffffffffffffffffffffffffffffffff160217905550808273ffffffffffffffffffffffffffffffffffffffff168473ffffffffffffffffffffffffffffffffffffffff167fddf252ad1be2c89b69c2b068fc378daa952ba7f163c4a11628f55a4df523b3ef60405160405180910390a4505050565b60006117848473ffffffffffffffffffffffffffffffffffffffff1661195a565b156118ed578373ffffffffffffffffffffffffffffffffffffffff1663150b7a026117ad611028565b8786866040518563ffffffff1660e01b81526004016117cf9493929190612374565b602060405180830381600087803b1580156117e957600080fd5b505af192505050801561181a57506040513d601f19601f820116820180604052508101906118179190611efb565b60015b61189d573d806000811461184a576040519150601f19603f3d011682016040523d82523d6000602084013e61184f565b606091505b50600081511415611895576040517f08c379a000000000000000000000000000000000000000000000000000000000815260040161188c9061243f565b60405180910390fd5b805181602001fd5b63150b7a0260e01b7bffffffffffffffffffffffffffffffffffffffffffffffffffffffff1916817bffffffffffffffffffffffffffffffffffffffffffffffffffffffff1916149150506118f2565b600190505b949350505050565b611904838361196d565b6119116000848484611763565b611950576040517f08c379a00000000000000000000000000000000000000000000000000000000081526004016119479061243f565b60405180910390fd5b505050565b505050565b600080823b905060008111915050919050565b6119778282611a64565b6008819080600181540180825580915050600190039060005260206000200160009091909190915055600660003373ffffffffffffffffffffffffffffffffffffffff1673ffffffffffffffffffffffffffffffffffffffff168152602001908152602001600020819080600181540180825580915050600190039060005260206000200160009091909190915055600660003373ffffffffffffffffffffffffffffffffffffffff1673ffffffffffffffffffffffffffffffffffffffff1681526020019081526020016000208054905060076000838152602001908152602001600020819055505050565b600073ffffffffffffffffffffffffffffffffffffffff168273ffffffffffffffffffffffffffffffffffffffff161415611ad4576040517f08c379a0000000000000000000000000000000000000000000000000000000008152600401611acb9061253f565b60405180910390fd5b611add81610fbc565b15611b1d576040517f08c379a0000000000000000000000000000000000000000000000000000000008152600401611b149061245f565b60405180910390fd5b611b2960008383611955565b6001600360008473ffffffffffffffffffffffffffffffffffffffff1673ffffffffffffffffffffffffffffffffffffffff1681526020019081526020016000206000828254611b799190612737565b92505081905550816002600083815260200190815260200160002060006101000a81548173ffffffffffffffffffffffffffffffffffffffff021916908373ffffffffffffffffffffffffffffffffffffffff160217905550808273ffffffffffffffffffffffffffffffffffffffff16600073ffffffffffffffffffffffffffffffffffffffff167fddf252ad1be2c89b69c2b068fc378daa952ba7f163c4a11628f55a4df523b3ef60405160405180910390a45050565b6000611c45611c408461267f565b61265a565b905082815260208101848484011115611c6157611c60612a75565b5b611c6c848285612866565b509392505050565b600081359050611c8381612f19565b92915050565b600081359050611c9881612f30565b92915050565b600081359050611cad81612f47565b92915050565b600081519050611cc281612f47565b92915050565b600082601f830112611cdd57611cdc612a70565b5b8135611ced848260208601611c32565b91505092915050565b600081359050611d0581612f5e565b92915050565b600060208284031215611d2157611d20612a7f565b5b6000611d2f84828501611c74565b91505092915050565b60008060408385031215611d4f57611d4e612a7f565b5b6000611d5d85828601611c74565b9250506020611d6e85828601611c74565b9150509250929050565b600080600060608486031215611d9157611d90612a7f565b5b6000611d9f86828701611c74565b9350506020611db086828701611c74565b9250506040611dc186828701611cf6565b9150509250925092565b60008060008060808587031215611de557611de4612a7f565b5b6000611df387828801611c74565b9450506020611e0487828801611c74565b9350506040611e1587828801611cf6565b925050606085013567ffffffffffffffff811115611e3657611e35612a7a565b5b611e4287828801611cc8565b91505092959194509250565b60008060408385031215611e6557611e64612a7f565b5b6000611e7385828601611c74565b9250506020611e8485828601611c89565b9150509250929050565b60008060408385031215611ea557611ea4612a7f565b5b6000611eb385828601611c74565b9250506020611ec485828601611cf6565b9150509250929050565b600060208284031215611ee457611ee3612a7f565b5b6000611ef284828501611c9e565b91505092915050565b600060208284031215611f1157611f10612a7f565b5b6000611f1f84828501611cb3565b91505092915050565b600060208284031215611f3e57611f3d612a7f565b5b6000611f4c84828501611cf6565b91505092915050565b6000611f618383612302565b60208301905092915050565b611f76816127f2565b82525050565b6000611f87826126c0565b611f9181856126ee565b9350611f9c836126b0565b8060005b83811015611fcd578151611fb48882611f55565b9750611fbf836126e1565b925050600181019050611fa0565b5085935050505092915050565b611fe381612804565b82525050565b6000611ff4826126cb565b611ffe81856126ff565b935061200e818560208601612875565b61201781612a84565b840191505092915050565b600061202d826126d6565b612037818561271b565b9350612047818560208601612875565b61205081612a84565b840191505092915050565b6000612066826126d6565b612070818561272c565b9350612080818560208601612875565b80840191505092915050565b600061209960188361271b565b91506120a482612a95565b602082019050919050565b60006120bc60328361271b565b91506120c782612abe565b604082019050919050565b60006120df601c8361271b565b91506120ea82612b0d565b602082019050919050565b600061210260248361271b565b915061210d82612b36565b604082019050919050565b600061212560198361271b565b915061213082612b85565b602082019050919050565b6000612148602c8361271b565b915061215382612bae565b604082019050919050565b600061216b60388361271b565b915061217682612bfd565b604082019050919050565b600061218e602a8361271b565b915061219982612c4c565b604082019050919050565b60006121b160298361271b565b91506121bc82612c9b565b604082019050919050565b60006121d460208361271b565b91506121df82612cea565b602082019050919050565b60006121f7602c8361271b565b915061220282612d13565b604082019050919050565b600061221a60298361271b565b915061222582612d62565b604082019050919050565b600061223d602f8361271b565b915061224882612db1565b604082019050919050565b600061226060218361271b565b915061226b82612e00565b604082019050919050565b6000612283600083612710565b915061228e82612e4f565b600082019050919050565b60006122a660108361271b565b91506122b182612e52565b602082019050919050565b60006122c960318361271b565b91506122d482612e7b565b604082019050919050565b60006122ec60298361271b565b91506122f782612eca565b604082019050919050565b61230b8161285c565b82525050565b61231a8161285c565b82525050565b600061232c828561205b565b9150612338828461205b565b91508190509392505050565b600061234f82612276565b9150819050919050565b600060208201905061236e6000830184611f6d565b92915050565b60006080820190506123896000830187611f6d565b6123966020830186611f6d565b6123a36040830185612311565b81810360608301526123b58184611fe9565b905095945050505050565b600060208201905081810360008301526123da8184611f7c565b905092915050565b60006020820190506123f76000830184611fda565b92915050565b600060208201905081810360008301526124178184612022565b905092915050565b600060208201905081810360008301526124388161208c565b9050919050565b60006020820190508181036000830152612458816120af565b9050919050565b60006020820190508181036000830152612478816120d2565b9050919050565b60006020820190508181036000830152612498816120f5565b9050919050565b600060208201905081810360008301526124b881612118565b9050919050565b600060208201905081810360008301526124d88161213b565b9050919050565b600060208201905081810360008301526124f88161215e565b9050919050565b6000602082019050818103600083015261251881612181565b9050919050565b60006020820190508181036000830152612538816121a4565b9050919050565b60006020820190508181036000830152612558816121c7565b9050919050565b60006020820190508181036000830152612578816121ea565b9050919050565b600060208201905081810360008301526125988161220d565b9050919050565b600060208201905081810360008301526125b881612230565b9050919050565b600060208201905081810360008301526125d881612253565b9050919050565b600060208201905081810360008301526125f881612299565b9050919050565b60006020820190508181036000830152612618816122bc565b9050919050565b60006020820190508181036000830152612638816122df565b9050919050565b60006020820190506126546000830184612311565b92915050565b6000612664612675565b905061267082826128da565b919050565b6000604051905090565b600067ffffffffffffffff82111561269a57612699612a41565b5b6126a382612a84565b9050602081019050919050565b6000819050602082019050919050565b600081519050919050565b600081519050919050565b600081519050919050565b6000602082019050919050565b600082825260208201905092915050565b600082825260208201905092915050565b600081905092915050565b600082825260208201905092915050565b600081905092915050565b60006127428261285c565b915061274d8361285c565b9250827fffffffffffffffffffffffffffffffffffffffffffffffffffffffffffffffff0382111561278257612781612985565b5b828201905092915050565b60006127988261285c565b91506127a38361285c565b9250826127b3576127b26129b4565b5b828204905092915050565b60006127c98261285c565b91506127d48361285c565b9250828210156127e7576127e6612985565b5b828203905092915050565b60006127fd8261283c565b9050919050565b60008115159050919050565b60007fffffffff0000000000000000000000000000000000000000000000000000000082169050919050565b600073ffffffffffffffffffffffffffffffffffffffff82169050919050565b6000819050919050565b82818337600083830152505050565b60005b83811015612893578082015181840152602081019050612878565b838111156128a2576000848401525b50505050565b600060028204905060018216806128c057607f821691505b602082108114156128d4576128d36129e3565b5b50919050565b6128e382612a84565b810181811067ffffffffffffffff8211171561290257612901612a41565b5b80604052505050565b60006129168261285c565b91507fffffffffffffffffffffffffffffffffffffffffffffffffffffffffffffffff82141561294957612948612985565b5b600182019050919050565b600061295f8261285c565b915061296a8361285c565b92508261297a576129796129b4565b5b828206905092915050565b7f4e487b7100000000000000000000000000000000000000000000000000000000600052601160045260246000fd5b7f4e487b7100000000000000000000000000000000000000000000000000000000600052601260045260246000fd5b7f4e487b7100000000000000000000000000000000000000000000000000000000600052602260045260246000fd5b7f4e487b7100000000000000000000000000000000000000000000000000000000600052603260045260246000fd5b7f4e487b7100000000000000000000000000000000000000000000000000000000600052604160045260246000fd5b600080fd5b600080fd5b600080fd5b600080fd5b6000601f19601f8301169050919050565b7f546f6b656e20636f737420697320302e30312065746865720000000000000000600082015250565b7f4552433732313a207472616e7366657220746f206e6f6e20455243373231526560008201527f63656976657220696d706c656d656e7465720000000000000000000000000000602082015250565b7f4552433732313a20746f6b656e20616c7265616479206d696e74656400000000600082015250565b7f4552433732313a207472616e7366657220746f20746865207a65726f2061646460008201527f7265737300000000000000000000000000000000000000000000000000000000602082015250565b7f4552433732313a20617070726f766520746f2063616c6c657200000000000000600082015250565b7f4552433732313a206f70657261746f7220717565727920666f72206e6f6e657860008201527f697374656e7420746f6b656e0000000000000000000000000000000000000000602082015250565b7f4552433732313a20617070726f76652063616c6c6572206973206e6f74206f7760008201527f6e6572206e6f7220617070726f76656420666f7220616c6c0000000000000000602082015250565b7f4552433732313a2062616c616e636520717565727920666f7220746865207a6560008201527f726f206164647265737300000000000000000000000000000000000000000000602082015250565b7f4552433732313a206f776e657220717565727920666f72206e6f6e657869737460008201527f656e7420746f6b656e0000000000000000000000000000000000000000000000602082015250565b7f4552433732313a206d696e7420746f20746865207a65726f2061646472657373600082015250565b7f4552433732313a20617070726f76656420717565727920666f72206e6f6e657860008201527f697374656e7420746f6b656e0000000000000000000000000000000000000000602082015250565b7f4552433732313a207472616e73666572206f6620746f6b656e2074686174206960008201527f73206e6f74206f776e0000000000000000000000000000000000000000000000602082015250565b7f4552433732314d657461646174613a2055524920717565727920666f72206e6f60008201527f6e6578697374656e7420746f6b656e0000000000000000000000000000000000602082015250565b7f4552433732313a20617070726f76616c20746f2063757272656e74206f776e6560008201527f7200000000000000000000000000000000000000000000000000000000000000602082015250565b50565b7f5472616e73666572206661696c65642e00000000000000000000000000000000600082015250565b7f4552433732313a207472616e736665722063616c6c6572206973206e6f74206f60008201527f776e6572206e6f7220617070726f766564000000000000000000000000000000602082015250565b7f4552433732313a20746f6b656e7320717565727920666f7220746865207a657260008201527f6f20616464726573730000000000000000000000000000000000000000000000602082015250565b612f22816127f2565b8114612f2d57600080fd5b50565b612f3981612804565b8114612f4457600080fd5b50565b612f5081612810565b8114612f5b57600080fd5b50565b612f678161285c565b8114612f7257600080fd5b5056fea26469706673582212200a1f34e88d7461d3db017a5ead5d4d4612a206ebe3f843b131edcc680dee3b4364736f6c63430008050033",
  "immutableReferences": {},
  "source": "// SPDX-License-Identifier: UNLICENSED\npragma solidity ^0.8.0;\nimport \"./ERC721.sol\";\n\n\ncontract MarsColony is ERC721 {\n  mapping (address => uint256[]) private _tokens;\n  mapping (uint256 => uint256) private _tokenPositionsPlusOne;\n  uint256[] private _allMintedTokens;\n\n  address payable constant DAO = payable(0x97438E7A978A91dC281B834B62bb5737f629Aca9);\n  uint constant PRICE = 0.001 ether;\n\n  function tokensOf(address owner) public view virtual returns (uint256[] memory) {\n    require(owner != address(0), \"ERC721: tokens query for the zero address\");\n    return _tokens[owner];\n  }\n\n  function allMintedTokens() public view virtual returns (uint256[] memory) {\n    return _allMintedTokens;\n  }\n\n  constructor () ERC721(\"MarsColony\", \"MC\") {\n\n  }\n\n  function buy(uint256 _tokenId) public payable {\n    require(msg.value == MarsColony.PRICE, 'Token cost is 0.01 ether');\n    _safeMint(msg.sender, _tokenId);\n  }\n\n  // function buy5x5(uint256 _centerTokenId) public payable {\n  //   require(msg.value == 25 * MarsColony.PRICE, '25 tokens cost is 0.25 ether');\n  //   for (uint8 dr = 2-2; dr <= 2+2; dr++) {\n  //     for (uint8 dphi = 2-2; dphi <= 2+2; dphi++) {\n  //       _safeMint(msg.sender, _centerTokenId + dr * 1000 + dphi - 2002);\n  //     }\n  //   }\n  // }\n\n  // anyone can call, but withdraw only to DAO\n  function withdraw() public {\n    (bool success, ) = DAO.call{ value: address(this).balance }(\"\");\n    require(success, \"Transfer failed.\");\n  }\n\n  function _transfer(address from, address to, uint256 tokenId) internal virtual override {\n    super._transfer(from, to, tokenId);\n    delete _tokens[from][_tokenPositionsPlusOne[tokenId] - 1];\n    _tokens[to].push(tokenId);\n    _tokenPositionsPlusOne[tokenId] = _tokens[to].length;\n  }\n\n  function _mint(address to, uint256 tokenId) internal virtual override {\n    super._mint(to, tokenId);\n    _allMintedTokens.push(tokenId);\n    _tokens[msg.sender].push(tokenId);\n    _tokenPositionsPlusOne[tokenId] = _tokens[msg.sender].length;\n    // ^^^ here we store position of token in an array _tokens[msg.sender] to delete it later with less gas\n  }\n}\n",
  "sourcePath": "/Users/kek/contracts/contracts/MarsColony.sol",
  "compiler": {
    "name": "solc",
    "version": "0.8.5+commit.a4f2e591.Emscripten.clang"
  },
  "schemaVersion": "3.4.1",
  "updatedAt": "2021-09-06T20:16:08.739Z",
  "networkType": "ethereum",
  "devdoc": {
    "kind": "dev",
    "methods": {
      "approve(address,uint256)": {
        "details": "See {IERC721-approve}."
      },
      "balanceOf(address)": {
        "details": "See {IERC721-balanceOf}."
      },
      "getApproved(uint256)": {
        "details": "See {IERC721-getApproved}."
      },
      "isApprovedForAll(address,address)": {
        "details": "See {IERC721-isApprovedForAll}."
      },
      "name()": {
        "details": "See {IERC721Metadata-name}."
      },
      "ownerOf(uint256)": {
        "details": "See {IERC721-ownerOf}."
      },
      "safeTransferFrom(address,address,uint256)": {
        "details": "See {IERC721-safeTransferFrom}."
      },
      "safeTransferFrom(address,address,uint256,bytes)": {
        "details": "See {IERC721-safeTransferFrom}."
      },
      "setApprovalForAll(address,bool)": {
        "details": "See {IERC721-setApprovalForAll}."
      },
      "supportsInterface(bytes4)": {
        "details": "See {IERC165-supportsInterface}."
      },
      "symbol()": {
        "details": "See {IERC721Metadata-symbol}."
      },
      "tokenURI(uint256)": {
        "details": "See {IERC721Metadata-tokenURI}."
      },
      "transferFrom(address,address,uint256)": {
        "details": "See {IERC721-transferFrom}."
      }
    },
    "version": 1
  },
  "userdoc": {
    "kind": "user",
    "methods": {},
    "version": 1
  }
}